:1000000045C0000060C000005EC000005CC0000091
:100010005AC0000058C0000056C0000054C0000084
:1000200052C0000050C000004EC000004CC0000094
:100030004AC0000048C0000046C0000008C30000DD
:1000400042C0000040C000003EC000003CC00000B4
:100050003AC0000038C0000036C0000034C00000C4
:1000600032C0000030C000002EC000002CC00000D4
:100070002AC0000028C0000026C0000024C00000E4
:1000800022C0000020C000001EC0000011241FBEBE
:10009000CFEFD0E1DEBFCDBF11E0A0E0B1E0E8EAF4
:1000A000F6E000E00BBF02C007900D92A030B10750
:1000B000D9F721E0A0E0B1E001C01D92A830B2075D
:1000C000E1F702D0EFC29CCFCF93DF9300D000D0F6
:1000D00000D0CDB7DEB766D06894EE24E1F805E035
:1000E00023E044E062E370E0CE010196E9D182B101
:1000F0008F7382B9E4E6F0E0808183608083E5E677
:10010000F0E080818C7F808384E690E03ED295D0C1
:1001100084E690E03AD28ED08AE090E036D281E652
:100120005DD005E610E0FF24F39440D0833059F011
:1001300028F4813069F0823081F01EC08430B9F03B
:10014000853081F019C0F80180818160808318C0FA
:10015000F80180818F25808313C0F801808182603F
:1001600080830EC0F80180818E25808309C0F8014C
:1001700080818360808304C0F80180818F25808323
:100180008CD2882391F262E070E0CE01019632D1E8
:100190008AE090E0FAD1CE01019634D188E99AE361
:1001A000F4D1C3CF84B3877084BB089583B38095A3
:1001B00083FD0AC0882354F086FD0AC084FD0AC06E
:1001C00085FD0AC080E0089585E0089581E00895E6
:1001D00082E0089584E0089583E00895CF93DF934B
:1001E0009BB395609BBBD998C2E6D0E09881892BE0
:1001F00088838AE090E0E2D1D8988AE090E0DED16E
:100200001882DF91CF910895CF93DF93D89A9BB353
:10021000997F9BBBC2E6D0E09881892B88838AE0D6
:1002200090E0CCD1D8988AE090E0C8D11882DF91D4
:10023000CF91089581E0E8CF0895E1E6F0E0808174
:100240008FEF80838AB3887F8ABB8BB3887F8BBB19
:1002500088E290E09AD180E3D7DF85E090E095D105
:1002600080E3D2DF80EA90E0A9D180E3CDDF80EAAD
:1002700090E0A4D188E3C8DF81E090E086D180E1FE
:10028000C3DF81E090E081D187E0BEDF81E090E0D4
:100290007CD186E0B9DF81E090E077D181E0B4DF06
:1002A0008AE090E072D1C6DF8AE090E06EC10895E6
:1002B000CF92DF92EF92FF920F931F93CF93DF9332
:1002C000EC016B01E881F981408121E030E0C90156
:1002D0000C8002C0880F991F0A94E2F7809584234E
:1002E000808388EE93E06AD1DD207CF4E881F98197
:1002F000408121E030E0C9010B8002C0880F991FC6
:100300000A94E2F7842B80830EC0E881F981208172
:1003100081E090E00B8002C0880F991F0A94E2F7F9
:1003200080958223808388EE93E048D1E881F9812B
:10033000408121E030E0C9010C8002C0880F991F84
:100340000A94E2F7842B80830EE010E0EE24E3941D
:10035000F12C88EC90E032D1E881F9812081C7014D
:100360000C8002C0880F991F0A94E2F780958223BF
:100370008083C701002E02C0880F991F0A94E2F7FC
:100380008C219D21892B69F0E881F9812081C701A9
:100390000B8002C0880F991F0A94E2F7822B80839A
:1003A0000DC0E881F9812081C7010B8002C0880F50
:1003B000991F0A94E2F780958223808388EC90E06D
:1003C000FDD0E881F9812081C7010C8002C0880F2F
:1003D000991F0A94E2F7822B80830150110908F0DB
:1003E000B8CFDF91CF911F910F91FF90EF90DF90E9
:1003F000CF900895611522E0720710F06FEF71E061
:1004000057CF0895CF93DF93EC016EEF7FEF50DF6E
:1004100062E370E080E0E3D0E881F9813297808187
:1004200090E00D8002C0959587950A94E2F721E04F
:10043000822760E070E08170D2D08111EDCFE88139
:10044000F98121E030E00D8002C0220F331F0A94B1
:10045000E2F73297808190E082239323892BD1F7B2
:100460008AE090E092D0DF91CF9108950F931F938F
:10047000CF93DF93EC01E881F981208101E010E066
:10048000C8010A8002C0880F991F0A94E2F780957C
:100490008223808384E690E078D0E881F9818081AE
:1004A0000A8002C0000F111F0A94E2F7082B008394
:1004B00080E293E06AD0DF91CF911F910F91089570
:1004C000EF92FF920F93CF93DF93EC01FB017983BF
:1004D00068832B834A830C83ED8231B381E090E003
:1004E000BC0102C0660F771F4A95E2F7AB01432BB0
:1004F00041BB41B3BC0102C0660F771F2A95E2F7EA
:100500009B01342F322B31BB31B3AC0102C0440FFD
:10051000551FEA94E2F77A01E0943E2131BB31B3F2
:1005200002C0880F991F0A95E2F7932F982B91BB71
:100530009081892B8083808120952823208380814E
:10054000E822E0820BD08AE090E01FD0CE018EDF5F
:10055000DF91CF910F91FF90EF900895F89484E090
:1005600083BF8AEF81BF87B7826087BF1FBC1EBC75
:1005700078940895F8946091040170910501809138
:1005800006019091070178940895CF92DF92EF923F
:10059000FF927C01EFDF9B01AC012E0D3F1D411D41
:1005A000511D69017A01E6DF6C157D058E059F05F9
:1005B000D0F3FF90EF90DF90CF900895880F991FB0
:1005C000109289001092880022E020938A00E8E8C7
:1005D000F0E02081318128173907D8F30895CF92B0
:1005E000DF92EF92FF920F931F93CF93C82F8B014F
:1005F0006115710579F0BEDFAB01BC01400F511FE1
:10060000611D711D4093000150930101609302012F
:1006100070930301CC2391F0ADDF21E0C090000185
:10062000D0900101E0900201F09003016C157D056E
:100630008E059F0508F020E0822F01C080E0CF9159
:100640001F910F91FF90EF90DF90CF9008951F9230
:100650000F920FB60F9211248F939F93AF93BF9376
:1006600012BE8091040190910501A0910601B09104
:1006700007010196A11DB11D80930401909305010E
:10068000A0930601B0930701BF91AF919F918F9105
:100690000F900FBE0F901F90189581B186FB882791
:0806A00080F90895F894FFCFE2
:00000001FF
