S01400004554475F446F6F7262656C6C2E737265639E
S113000045C0000053C0000051C000004FC00000B4
S11300104DC000004BC0000049C0000047C00000B4
S113002045C0000043C0000041C000003FC00000C4
S11300303DC000003BC0000039C000008FC200007A
S113004035C0000033C0000031C000002FC00000E4
S11300502DC000002BC0000029C0000027C00000F4
S113006025C0000023C0000021C000001FC0000004
S11300701DC000001BC0000019C0000017C0000014
S113008015C0000013C0000011C0000011241FBEE1
S1130090CFEFD0E1DEBFCDBF21E0A0E0B1E001C0F1
S11300A01D92A830B207E1F702D091C2A9CFCF9335
S11300B0DF9300D000D000D0CDB7DEB754D0689421
S11300C0EE24E1F805E023E044E062E370E0CE01D1
S11300D001966DD182B18F7382B9E4E6F0E080813C
S11300E083608083E5E6F0E080818C6F808305E6A1
S11300F010E0FF24F3943BD0833059F028F481308E
S113010069F0823081F01DC08430B9F0853081F00F
S113011018C0F80180818160808313C0F801808158
S11301208F2580830EC0F80180818260808309C09E
S1130130F80180818E25808304C0F801808183606A
S1130140808340D28823B9F262E070E0CE01019648
S1130150C8D08AE090E090D1CE010196CAD088E957
S11301609AE38AD1C8CF84B3877084BB089583B3DC
S1130170809583FD0AC0882354F086FD0AC084FD5F
S11301800AC085FD0AC080E0089585E0089581E0F5
S1130190089582E0089584E0089583E00895CF925D
S11301A0DF92EF92FF920F931F93CF93DF93EC01B3
S11301B06B01E881F981408121E030E0C9010C80C4
S11301C002C0880F991F0A94E2F7809584238083E4
S11301D088EE93E06AD1DD207CF4E881F9814081E6
S11301E021E030E0C9010B8002C0880F991F0A94F6
S11301F0E2F7842B80830EC0E881F981208181E0BD
S113020090E00B8002C0880F991F0A94E2F7809552
S11302108223808388EE93E048D1E881F98140818C
S113022021E030E0C9010C8002C0880F991F0A94B4
S1130230E2F7842B80830EE010E0EE24E394F12CAB
S113024088EC90E032D1E881F9812081C7010C80EB
S113025002C0880F991F0A94E2F780958223808355
S1130260C701002E02C0880F991F0A94E2F78C215F
S11302709D21892B69F0E881F9812081C7010B80D8
S113028002C0880F991F0A94E2F7822B80830DC065
S1130290E881F9812081C7010B8002C0880F991F72
S11302A00A94E2F780958223808388EC90E0FDD065
S11302B0E881F9812081C7010C8002C0880F991F51
S11302C00A94E2F7822B80830150110908F0B8CF19
S11302D0DF91CF911F910F91FF90EF90DF90CF901E
S11302E00895611522E0720710F06FEF71E057CFA7
S11302F00895CF93DF93EC016EEF7FEF50DF62E35D
S113030070E080E0F3D0E881F9813297808190E059
S11303100D8002C0959587950A94E2F721E0822723
S113032060E070E08170E2D08111EDCFE881F98165
S113033021E030E00D8002C0220F331F0A94E2F75F
S11303403297808190E082239323892BD1F78AE02E
S113035090E092D0DF91CF9108950F931F93CF93A4
S1130360DF93EC01E881F981208101E010E0C8010C
S11303700A8002C0880F991F0A94E2F780958223AD
S1130380808384E690E078D0E881F98180810A80D6
S113039002C0000F111F0A94E2F7082B008380E2C9
S11303A093E06AD0DF91CF911F910F910895EF925E
S11303B0FF920F93CF93DF93EC01FB017983688362
S11303C02B834A830C83ED8231B381E090E0BC013E
S11303D002C0660F771F4A95E2F7AB01432B41BB7E
S11303E041B3BC0102C0660F771F2A95E2F79B0157
S11303F0342F322B31BB31B3AC0102C0440F551F33
S1130400EA94E2F77A01E0943E2131BB31B302C0B1
S1130410880F991F0A95E2F7932F982B91BB90812F
S1130420892B808380812095282320838081E82262
S1130430E0820BD08AE090E01FD0CE018EDFDF9106
S1130440CF910F91FF90EF900895F89484E083BFCB
S11304508AEF81BF87B7826087BF1FBC1EBC7894B8
S11304600895F8946091040170910501809106014A
S11304709091070178940895CF92DF92EF92FF92C2
S11304807C01EFDF9B01AC012E0D3F1D411D511D71
S113049069017A01E6DF6C157D058E059F05D0F3B1
S11304A0FF90EF90DF90CF900895880F991FE8E8B0
S11304B0F0E01182108222E020938A0020813181B1
S11304C02817390768F4E5E6F0E0A8E8B0E02081F1
S11304D0216020832D913C91119728173907B8F397
S11304E0E5E6F0E080818E7F80830895CF92DF92ED
S11304F0EF92FF920F931F93CF93C82F8B01611537
S1130500710579F0AEDFAB01BC01400F511F611DD5
S1130510711D409300015093010160930201709397
S11305200301CC2391F09DDF21E0C0900001D09025
S11305300101E0900201F09003016C157D058E0528
S11305409F0508F020E0822F01C080E0CF911F9129
S11305500F91FF90EF90DF90CF9008951F920F922C
S11305600FB60F9211240BB60F928F939F93AF93F4
S1130570BF93EF93FF9312BE809104019091050104
S1130580A0910601B09107010196A11DB11D8093B0
S1130590040190930501A0930601B0930701E5E6D9
S11305A0F0E0908182E089278083FF91EF91BF91F1
S11305B0AF919F918F910F900BBE0F900FBE0F9034
S11305C01F90189581B186FB882780F90895F894C7
S10505D0FFCF57
S9030000FC
